{
  "abi": [
    {
      "inputs": [
        {
          "internalType": "address",
          "name": "_csiOwner",
          "type": "address"
        },
        {
          "internalType": "address",
          "name": "_paymentAddress",
          "type": "address"
        },
        {
          "internalType": "address[]",
          "name": "_csiDelegates",
          "type": "address[]"
        },
        {
          "internalType": "uint256",
          "name": "_creationCost",
          "type": "uint256"
        }
      ],
      "stateMutability": "nonpayable",
      "type": "constructor"
    },
    {
      "inputs": [],
      "name": "AccessControlBadConfirmation",
      "type": "error"
    },
    {
      "inputs": [
        {
          "internalType": "address",
          "name": "account",
          "type": "address"
        },
        {
          "internalType": "bytes32",
          "name": "neededRole",
          "type": "bytes32"
        }
      ],
      "name": "AccessControlUnauthorizedAccount",
      "type": "error"
    },
    {
      "inputs": [
        {
          "internalType": "address",
          "name": "",
          "type": "address"
        },
        {
          "internalType": "bytes32",
          "name": "",
          "type": "bytes32"
        }
      ],
      "name": "AlreadyHasRole",
      "type": "error"
    },
    {
      "inputs": [],
      "name": "Create2EmptyBytecode",
      "type": "error"
    },
    {
      "inputs": [],
      "name": "Create2FailedDeployment",
      "type": "error"
    },
    {
      "inputs": [
        {
          "internalType": "uint256",
          "name": "balance",
          "type": "uint256"
        },
        {
          "internalType": "uint256",
          "name": "needed",
          "type": "uint256"
        }
      ],
      "name": "Create2InsufficientBalance",
      "type": "error"
    },
    {
      "inputs": [],
      "name": "DeploymentFailed",
      "type": "error"
    },
    {
      "inputs": [],
      "name": "EmptyOrgName",
      "type": "error"
    },
    {
      "inputs": [],
      "name": "IncorrectCaller",
      "type": "error"
    },
    {
      "inputs": [
        {
          "internalType": "uint256",
          "name": "",
          "type": "uint256"
        },
        {
          "internalType": "uint256",
          "name": "",
          "type": "uint256"
        }
      ],
      "name": "InsufficientFunds",
      "type": "error"
    },
    {
      "inputs": [
        {
          "internalType": "address",
          "name": "owner",
          "type": "address"
        }
      ],
      "name": "OwnableInvalidOwner",
      "type": "error"
    },
    {
      "inputs": [
        {
          "internalType": "address",
          "name": "account",
          "type": "address"
        }
      ],
      "name": "OwnableUnauthorizedAccount",
      "type": "error"
    },
    {
      "inputs": [],
      "name": "PaymentFailed",
      "type": "error"
    },
    {
      "inputs": [],
      "name": "ZeroAddress",
      "type": "error"
    },
    {
      "anonymous": false,
      "inputs": [
        {
          "indexed": true,
          "internalType": "address",
          "name": "org",
          "type": "address"
        },
        {
          "indexed": false,
          "internalType": "string",
          "name": "name",
          "type": "string"
        }
      ],
      "name": "OrginizationCreated",
      "type": "event"
    },
    {
      "anonymous": false,
      "inputs": [
        {
          "indexed": true,
          "internalType": "address",
          "name": "previousOwner",
          "type": "address"
        },
        {
          "indexed": true,
          "internalType": "address",
          "name": "newOwner",
          "type": "address"
        }
      ],
      "name": "OwnershipTransferred",
      "type": "event"
    },
    {
      "anonymous": false,
      "inputs": [
        {
          "indexed": true,
          "internalType": "bytes32",
          "name": "role",
          "type": "bytes32"
        },
        {
          "indexed": true,
          "internalType": "bytes32",
          "name": "previousAdminRole",
          "type": "bytes32"
        },
        {
          "indexed": true,
          "internalType": "bytes32",
          "name": "newAdminRole",
          "type": "bytes32"
        }
      ],
      "name": "RoleAdminChanged",
      "type": "event"
    },
    {
      "anonymous": false,
      "inputs": [
        {
          "indexed": true,
          "internalType": "bytes32",
          "name": "role",
          "type": "bytes32"
        },
        {
          "indexed": true,
          "internalType": "address",
          "name": "account",
          "type": "address"
        },
        {
          "indexed": true,
          "internalType": "address",
          "name": "sender",
          "type": "address"
        }
      ],
      "name": "RoleGranted",
      "type": "event"
    },
    {
      "anonymous": false,
      "inputs": [
        {
          "indexed": true,
          "internalType": "bytes32",
          "name": "role",
          "type": "bytes32"
        },
        {
          "indexed": true,
          "internalType": "address",
          "name": "account",
          "type": "address"
        },
        {
          "indexed": true,
          "internalType": "address",
          "name": "sender",
          "type": "address"
        }
      ],
      "name": "RoleRevoked",
      "type": "event"
    },
    {
      "inputs": [],
      "name": "CSI_DELEGATE_ROLE",
      "outputs": [
        {
          "internalType": "bytes32",
          "name": "",
          "type": "bytes32"
        }
      ],
      "stateMutability": "view",
      "type": "function"
    },
    {
      "inputs": [],
      "name": "DEFAULT_ADMIN_ROLE",
      "outputs": [
        {
          "internalType": "bytes32",
          "name": "",
          "type": "bytes32"
        }
      ],
      "stateMutability": "view",
      "type": "function"
    },
    {
      "inputs": [
        {
          "internalType": "address",
          "name": "_delegate",
          "type": "address"
        }
      ],
      "name": "addDelegate",
      "outputs": [],
      "stateMutability": "nonpayable",
      "type": "function"
    },
    {
      "inputs": [
        {
          "internalType": "string",
          "name": "_name",
          "type": "string"
        },
        {
          "internalType": "address[]",
          "name": "_orgAdmins",
          "type": "address[]"
        },
        {
          "internalType": "address[]",
          "name": "_orgIssuers",
          "type": "address[]"
        }
      ],
      "name": "createOrginization",
      "outputs": [],
      "stateMutability": "payable",
      "type": "function"
    },
    {
      "inputs": [],
      "name": "creationCost",
      "outputs": [
        {
          "internalType": "uint256",
          "name": "",
          "type": "uint256"
        }
      ],
      "stateMutability": "view",
      "type": "function"
    },
    {
      "inputs": [],
      "name": "getAllOrgs",
      "outputs": [
        {
          "components": [
            {
              "internalType": "string",
              "name": "name",
              "type": "string"
            },
            {
              "internalType": "address",
              "name": "deployer",
              "type": "address"
            },
            {
              "internalType": "address",
              "name": "orgAddress",
              "type": "address"
            }
          ],
          "internalType": "struct Structs.Org[]",
          "name": "",
          "type": "tuple[]"
        }
      ],
      "stateMutability": "view",
      "type": "function"
    },
    {
      "inputs": [],
      "name": "getCSIDelegates",
      "outputs": [
        {
          "internalType": "address[]",
          "name": "delegates",
          "type": "address[]"
        }
      ],
      "stateMutability": "view",
      "type": "function"
    },
    {
      "inputs": [
        {
          "internalType": "address",
          "name": "_org",
          "type": "address"
        }
      ],
      "name": "getOrginization",
      "outputs": [
        {
          "components": [
            {
              "internalType": "string",
              "name": "name",
              "type": "string"
            },
            {
              "internalType": "address",
              "name": "deployer",
              "type": "address"
            },
            {
              "internalType": "address",
              "name": "orgAddress",
              "type": "address"
            }
          ],
          "internalType": "struct Structs.Org",
          "name": "",
          "type": "tuple"
        }
      ],
      "stateMutability": "view",
      "type": "function"
    },
    {
      "inputs": [
        {
          "internalType": "address",
          "name": "_org",
          "type": "address"
        }
      ],
      "name": "getOrginizationName",
      "outputs": [
        {
          "internalType": "string",
          "name": "",
          "type": "string"
        }
      ],
      "stateMutability": "view",
      "type": "function"
    },
    {
      "inputs": [
        {
          "internalType": "bytes32",
          "name": "role",
          "type": "bytes32"
        }
      ],
      "name": "getRoleAdmin",
      "outputs": [
        {
          "internalType": "bytes32",
          "name": "",
          "type": "bytes32"
        }
      ],
      "stateMutability": "view",
      "type": "function"
    },
    {
      "inputs": [
        {
          "internalType": "bytes32",
          "name": "role",
          "type": "bytes32"
        },
        {
          "internalType": "uint256",
          "name": "index",
          "type": "uint256"
        }
      ],
      "name": "getRoleMember",
      "outputs": [
        {
          "internalType": "address",
          "name": "",
          "type": "address"
        }
      ],
      "stateMutability": "view",
      "type": "function"
    },
    {
      "inputs": [
        {
          "internalType": "bytes32",
          "name": "role",
          "type": "bytes32"
        }
      ],
      "name": "getRoleMemberCount",
      "outputs": [
        {
          "internalType": "uint256",
          "name": "",
          "type": "uint256"
        }
      ],
      "stateMutability": "view",
      "type": "function"
    },
    {
      "inputs": [
        {
          "internalType": "bytes32",
          "name": "role",
          "type": "bytes32"
        },
        {
          "internalType": "address",
          "name": "account",
          "type": "address"
        }
      ],
      "name": "grantRole",
      "outputs": [],
      "stateMutability": "nonpayable",
      "type": "function"
    },
    {
      "inputs": [
        {
          "internalType": "bytes32",
          "name": "role",
          "type": "bytes32"
        },
        {
          "internalType": "address",
          "name": "account",
          "type": "address"
        }
      ],
      "name": "hasRole",
      "outputs": [
        {
          "internalType": "bool",
          "name": "",
          "type": "bool"
        }
      ],
      "stateMutability": "view",
      "type": "function"
    },
    {
      "inputs": [
        {
          "internalType": "address",
          "name": "",
          "type": "address"
        }
      ],
      "name": "org",
      "outputs": [
        {
          "internalType": "string",
          "name": "name",
          "type": "string"
        },
        {
          "internalType": "address",
          "name": "deployer",
          "type": "address"
        },
        {
          "internalType": "address",
          "name": "orgAddress",
          "type": "address"
        }
      ],
      "stateMutability": "view",
      "type": "function"
    },
    {
      "inputs": [],
      "name": "orgCount",
      "outputs": [
        {
          "internalType": "uint256",
          "name": "",
          "type": "uint256"
        }
      ],
      "stateMutability": "view",
      "type": "function"
    },
    {
      "inputs": [
        {
          "internalType": "uint256",
          "name": "",
          "type": "uint256"
        }
      ],
      "name": "orgs",
      "outputs": [
        {
          "internalType": "address",
          "name": "",
          "type": "address"
        }
      ],
      "stateMutability": "view",
      "type": "function"
    },
    {
      "inputs": [],
      "name": "owner",
      "outputs": [
        {
          "internalType": "address",
          "name": "",
          "type": "address"
        }
      ],
      "stateMutability": "view",
      "type": "function"
    },
    {
      "inputs": [],
      "name": "paymentAddress",
      "outputs": [
        {
          "internalType": "address",
          "name": "",
          "type": "address"
        }
      ],
      "stateMutability": "view",
      "type": "function"
    },
    {
      "inputs": [
        {
          "internalType": "address",
          "name": "_delegate",
          "type": "address"
        }
      ],
      "name": "removeDelegate",
      "outputs": [],
      "stateMutability": "nonpayable",
      "type": "function"
    },
    {
      "inputs": [],
      "name": "renounceOwnership",
      "outputs": [],
      "stateMutability": "nonpayable",
      "type": "function"
    },
    {
      "inputs": [
        {
          "internalType": "bytes32",
          "name": "role",
          "type": "bytes32"
        },
        {
          "internalType": "address",
          "name": "callerConfirmation",
          "type": "address"
        }
      ],
      "name": "renounceRole",
      "outputs": [],
      "stateMutability": "nonpayable",
      "type": "function"
    },
    {
      "inputs": [
        {
          "internalType": "bytes32",
          "name": "role",
          "type": "bytes32"
        },
        {
          "internalType": "address",
          "name": "account",
          "type": "address"
        }
      ],
      "name": "revokeRole",
      "outputs": [],
      "stateMutability": "nonpayable",
      "type": "function"
    },
    {
      "inputs": [
        {
          "internalType": "uint256",
          "name": "_creationCost",
          "type": "uint256"
        }
      ],
      "name": "setCreationCost",
      "outputs": [],
      "stateMutability": "nonpayable",
      "type": "function"
    },
    {
      "inputs": [
        {
          "internalType": "address",
          "name": "_paymentAddress",
          "type": "address"
        }
      ],
      "name": "setPaymentAddress",
      "outputs": [],
      "stateMutability": "nonpayable",
      "type": "function"
    },
    {
      "inputs": [
        {
          "internalType": "bytes4",
          "name": "interfaceId",
          "type": "bytes4"
        }
      ],
      "name": "supportsInterface",
      "outputs": [
        {
          "internalType": "bool",
          "name": "",
          "type": "bool"
        }
      ],
      "stateMutability": "view",
      "type": "function"
    },
    {
      "inputs": [
        {
          "internalType": "address",
          "name": "newOwner",
          "type": "address"
        }
      ],
      "name": "transferOwnership",
      "outputs": [],
      "stateMutability": "nonpayable",
      "type": "function"
    },
    {
      "inputs": [],
      "name": "withdraw",
      "outputs": [],
      "stateMutability": "nonpayable",
      "type": "function"
    }
  ],
  "bytecode": {
    "object": "0x60806040523480156200001157600080fd5b50604051620010c6380380620010c68339810160408190526200003491620003d1565b816001600160a01b0381166200006557604051631e4fbdf760e01b8152600060048201526024015b60405180910390fd5b62000070816200011f565b506200008d600080516020620010a6833981519152600062000171565b6200009a600083620001bc565b50620000b6600080516020620010a683398151915283620001bc565b5060005b8151811015620001165762000101600080516020620010a6833981519152838381518110620000ed57620000ed620004ba565b6020026020010151620001f960201b60201c565b806200010d81620004d0565b915050620000ba565b505050620004f8565b600280546001600160a01b038381166001600160a01b0319831681179093556040519116919082907f8be0079c531659141344cd1fd0a4f28419497f9722a3daafe3b4186f6b6457e090600090a35050565b600082815260208190526040808220600101805490849055905190918391839186917fbd79b86ffe0ab8e8776151514217cd7cacd52c909f66475c3af44e129f0b00ff9190a4505050565b600080620001cb848462000228565b90508015620001f0576000848152600160205260409020620001ee9084620002d6565b505b90505b92915050565b6000828152602081905260409020600101546200021681620002ed565b620002228383620001bc565b50505050565b6000828152602081815260408083206001600160a01b038516845290915281205460ff16620002cd576000838152602081815260408083206001600160a01b03861684529091529020805460ff19166001179055620002843390565b6001600160a01b0316826001600160a01b0316847f2f8788117e7eff1d82e926ec794901d17c78024a50270940304540a733656f0d60405160405180910390a4506001620001f3565b506000620001f3565b6000620001f0836001600160a01b038416620002fc565b620002f9813362000345565b50565b6000818152600183016020526040812054620002cd57508154600181810184556000848152602080822090930184905584548482528286019093526040902091909155620001f3565b6000828152602081815260408083206001600160a01b038516845290915290205460ff166200039a5760405163e2517d3f60e01b81526001600160a01b0382166004820152602481018390526044016200005c565b5050565b80516001600160a01b0381168114620003b657600080fd5b919050565b634e487b7160e01b600052604160045260246000fd5b60008060408385031215620003e557600080fd5b620003f0836200039e565b602084810151919350906001600160401b03808211156200041057600080fd5b818601915086601f8301126200042557600080fd5b8151818111156200043a576200043a620003bb565b8060051b604051601f19603f83011681018181108582111715620004625762000462620003bb565b6040529182528482019250838101850191898311156200048157600080fd5b938501935b82851015620004aa576200049a856200039e565b8452938501939285019262000486565b8096505050505050509250929050565b634e487b7160e01b600052603260045260246000fd5b600060018201620004f157634e487b7160e01b600052601160045260246000fd5b5060010190565b610b9e80620005086000396000f3fe608060405234801561001057600080fd5b50600436106101005760003560e01c80638da5cb5b11610097578063ca15c87311610066578063ca15c8731461021e578063d547741f14610231578063e71bdf4114610244578063f2fde38b1461025757600080fd5b80638da5cb5b146101cb5780639010d07c146101f057806391d1485414610203578063a217fddf1461021657600080fd5b806341c2874f116100d357806341c2874f1461018657806367e7646f1461019b5780636e46d933146101ae578063715018a6146101c357600080fd5b806301ffc9a714610105578063248a9ca31461012d5780632f2ff15d1461015e57806336568abe14610173575b600080fd5b6101186101133660046109af565b61026a565b60405190151581526020015b60405180910390f35b61015061013b3660046109d9565b60009081526020819052604090206001015490565b604051908152602001610124565b61017161016c366004610a0e565b610295565b005b610171610181366004610a0e565b6102c0565b610150600080516020610b4983398151915281565b6101716101a9366004610a3a565b6102f8565b6101b6610377565b6040516101249190610a55565b61017161043d565b6002546001600160a01b03165b6040516001600160a01b039091168152602001610124565b6101d86101fe366004610aa2565b610451565b610118610211366004610a0e565b610470565b610150600081565b61015061022c3660046109d9565b610499565b61017161023f366004610a0e565b6104b0565b610171610252366004610a3a565b6104d5565b610171610265366004610a3a565b610576565b60006001600160e01b03198216635a05180f60e01b148061028f575061028f826105b1565b92915050565b6000828152602081905260409020600101546102b0816105e6565b6102ba83836105f0565b50505050565b6001600160a01b03811633146102e95760405163334bd91960e11b815260040160405180910390fd5b6102f38282610625565b505050565b610300610652565b6001600160a01b0381166103275760405163d92e233d60e01b815260040160405180910390fd5b61033f600080516020610b4983398151915282610470565b61035c576040516317fe949f60e01b815260040160405180910390fd5b610374600080516020610b49833981519152826104b0565b50565b60606000610392600080516020610b49833981519152610499565b90508067ffffffffffffffff8111156103ad576103ad610ac4565b6040519080825280602002602001820160405280156103d6578160200160208202803683370190505b50915060005b81811015610438576103fc600080516020610b4983398151915282610451565b83828151811061040e5761040e610ada565b6001600160a01b03909216602092830291909101909101528061043081610b06565b9150506103dc565b505090565b610445610652565b61044f600061067f565b565b600082815260016020526040812061046990836106d1565b9392505050565b6000918252602082815260408084206001600160a01b0393909316845291905290205460ff1690565b600081815260016020526040812061028f906106dd565b6000828152602081905260409020600101546104cb816105e6565b6102ba8383610625565b6104dd610652565b6001600160a01b0381166105045760405163d92e233d60e01b815260040160405180910390fd5b61051c600080516020610b4983398151915282610470565b1561055e5760405163b7fed62560e01b81526001600160a01b0382166004820152600080516020610b4983398151915260248201526044015b60405180910390fd5b610374600080516020610b4983398151915282610295565b61057e610652565b6001600160a01b0381166105a857604051631e4fbdf760e01b815260006004820152602401610555565b6103748161067f565b60006001600160e01b03198216637965db0b60e01b148061028f57506301ffc9a760e01b6001600160e01b031983161461028f565b61037481336106e7565b6000806105fd8484610724565b9050801561046957600084815260016020526040902061061d90846107b6565b509392505050565b60008061063284846107cb565b9050801561046957600084815260016020526040902061061d9084610836565b6002546001600160a01b0316331461044f5760405163118cdaa760e01b8152336004820152602401610555565b600280546001600160a01b038381166001600160a01b0319831681179093556040519116919082907f8be0079c531659141344cd1fd0a4f28419497f9722a3daafe3b4186f6b6457e090600090a35050565b6000610469838361084b565b600061028f825490565b6106f18282610470565b6107205760405163e2517d3f60e01b81526001600160a01b038216600482015260248101839052604401610555565b5050565b60006107308383610470565b6107ae576000838152602081815260408083206001600160a01b03861684529091529020805460ff191660011790556107663390565b6001600160a01b0316826001600160a01b0316847f2f8788117e7eff1d82e926ec794901d17c78024a50270940304540a733656f0d60405160405180910390a450600161028f565b50600061028f565b6000610469836001600160a01b038416610875565b60006107d78383610470565b156107ae576000838152602081815260408083206001600160a01b0386168085529252808320805460ff1916905551339286917ff6391f5c32d9c69d2a47ea670b442974b53935d1edc7fd64eb21e047a839171b9190a450600161028f565b6000610469836001600160a01b0384166108bc565b600082600001828154811061086257610862610ada565b9060005260206000200154905092915050565b60008181526001830160205260408120546107ae5750815460018181018455600084815260208082209093018490558454848252828601909352604090209190915561028f565b600081815260018301602052604081205480156109a55760006108e0600183610b1f565b85549091506000906108f490600190610b1f565b905080821461095957600086600001828154811061091457610914610ada565b906000526020600020015490508087600001848154811061093757610937610ada565b6000918252602080832090910192909255918252600188019052604090208390555b855486908061096a5761096a610b32565b60019003818190600052602060002001600090559055856001016000868152602001908152602001600020600090556001935050505061028f565b600091505061028f565b6000602082840312156109c157600080fd5b81356001600160e01b03198116811461046957600080fd5b6000602082840312156109eb57600080fd5b5035919050565b80356001600160a01b0381168114610a0957600080fd5b919050565b60008060408385031215610a2157600080fd5b82359150610a31602084016109f2565b90509250929050565b600060208284031215610a4c57600080fd5b610469826109f2565b6020808252825182820181905260009190848201906040850190845b81811015610a965783516001600160a01b031683529284019291840191600101610a71565b50909695505050505050565b60008060408385031215610ab557600080fd5b50508035926020909101359150565b634e487b7160e01b600052604160045260246000fd5b634e487b7160e01b600052603260045260246000fd5b634e487b7160e01b600052601160045260246000fd5b600060018201610b1857610b18610af0565b5060010190565b8181038181111561028f5761028f610af0565b634e487b7160e01b600052603160045260246000fdfe2eeba039359ffbb7a4d1e710e57738443adb6f50ace2ec4a6026eec3933d0e79a26469706673582212200e67c849e6c59dd0a7794ebbd472900166a178ba73c4ff405eec76e0f2f81ab464736f6c634300081400332eeba039359ffbb7a4d1e710e57738443adb6f50ace2ec4a6026eec3933d0e79",
    "linkReferences": {}
  },
  "methodIdentifiers": {
    "CSI_DELEGATE_ROLE()": "41c2874f",
    "DEFAULT_ADMIN_ROLE()": "a217fddf",
    "addDelegate(address)": "e71bdf41",
    "getCSIDelegates()": "6e46d933",
    "getRoleAdmin(bytes32)": "248a9ca3",
    "getRoleMember(bytes32,uint256)": "9010d07c",
    "getRoleMemberCount(bytes32)": "ca15c873",
    "grantRole(bytes32,address)": "2f2ff15d",
    "hasRole(bytes32,address)": "91d14854",
    "owner()": "8da5cb5b",
    "removeDelegate(address)": "67e7646f",
    "renounceOwnership()": "715018a6",
    "renounceRole(bytes32,address)": "36568abe",
    "revokeRole(bytes32,address)": "d547741f",
    "supportsInterface(bytes4)": "01ffc9a7",
    "transferOwnership(address)": "f2fde38b"
  },
  "id": 40
}