{"abi":[{"type":"constructor","inputs":[{"name":"_certificateName","type":"string","internalType":"string"},{"name":"_certificateSymbol","type":"string","internalType":"string"},{"name":"_maxSupply","type":"uint256","internalType":"uint256"},{"name":"_isTransferable","type":"bool","internalType":"bool"},{"name":"_isRevocable","type":"bool","internalType":"bool"},{"name":"_creator","type":"address","internalType":"address"},{"name":"_issuersForCert","type":"address[]","internalType":"address[]"}],"stateMutability":"nonpayable"},{"type":"function","name":"addIssuer","inputs":[{"name":"_issuer","type":"address","internalType":"address"}],"outputs":[],"stateMutability":"nonpayable"},{"type":"function","name":"approve","inputs":[{"name":"to","type":"address","internalType":"address"},{"name":"tokenId","type":"uint256","internalType":"uint256"}],"outputs":[],"stateMutability":"payable"},{"type":"function","name":"balanceOf","inputs":[{"name":"owner","type":"address","internalType":"address"}],"outputs":[{"name":"","type":"uint256","internalType":"uint256"}],"stateMutability":"view"},{"type":"function","name":"creationTs","inputs":[{"name":"","type":"uint256","internalType":"uint256"}],"outputs":[{"name":"","type":"uint256","internalType":"uint256"}],"stateMutability":"view"},{"type":"function","name":"creator","inputs":[],"outputs":[{"name":"","type":"address","internalType":"address"}],"stateMutability":"view"},{"type":"function","name":"getApproved","inputs":[{"name":"tokenId","type":"uint256","internalType":"uint256"}],"outputs":[{"name":"","type":"address","internalType":"address"}],"stateMutability":"view"},{"type":"function","name":"isApprovedForAll","inputs":[{"name":"owner","type":"address","internalType":"address"},{"name":"operator","type":"address","internalType":"address"}],"outputs":[{"name":"","type":"bool","internalType":"bool"}],"stateMutability":"view"},{"type":"function","name":"isRevocable","inputs":[],"outputs":[{"name":"","type":"bool","internalType":"bool"}],"stateMutability":"view"},{"type":"function","name":"isTransferable","inputs":[],"outputs":[{"name":"","type":"bool","internalType":"bool"}],"stateMutability":"view"},{"type":"function","name":"issuers","inputs":[{"name":"","type":"uint256","internalType":"uint256"}],"outputs":[{"name":"","type":"address","internalType":"address"}],"stateMutability":"view"},{"type":"function","name":"maxSupply","inputs":[],"outputs":[{"name":"","type":"uint256","internalType":"uint256"}],"stateMutability":"view"},{"type":"function","name":"mint","inputs":[{"name":"_to","type":"address","internalType":"address"},{"name":"_tokenURI","type":"string","internalType":"string"},{"name":"expInDays","type":"uint256","internalType":"uint256"}],"outputs":[],"stateMutability":"nonpayable"},{"type":"function","name":"name","inputs":[],"outputs":[{"name":"","type":"string","internalType":"string"}],"stateMutability":"view"},{"type":"function","name":"owner","inputs":[],"outputs":[{"name":"","type":"address","internalType":"address"}],"stateMutability":"view"},{"type":"function","name":"ownerOf","inputs":[{"name":"tokenId","type":"uint256","internalType":"uint256"}],"outputs":[{"name":"","type":"address","internalType":"address"}],"stateMutability":"view"},{"type":"function","name":"removeIssuer","inputs":[{"name":"_issuer","type":"address","internalType":"address"}],"outputs":[],"stateMutability":"nonpayable"},{"type":"function","name":"renounceOwnership","inputs":[],"outputs":[],"stateMutability":"nonpayable"},{"type":"function","name":"revoke","inputs":[{"name":"_tokenId","type":"uint256","internalType":"uint256"}],"outputs":[],"stateMutability":"nonpayable"},{"type":"function","name":"safeTransferFrom","inputs":[{"name":"from","type":"address","internalType":"address"},{"name":"to","type":"address","internalType":"address"},{"name":"tokenId","type":"uint256","internalType":"uint256"}],"outputs":[],"stateMutability":"payable"},{"type":"function","name":"safeTransferFrom","inputs":[{"name":"from","type":"address","internalType":"address"},{"name":"to","type":"address","internalType":"address"},{"name":"tokenId","type":"uint256","internalType":"uint256"},{"name":"_data","type":"bytes","internalType":"bytes"}],"outputs":[],"stateMutability":"payable"},{"type":"function","name":"setApprovalForAll","inputs":[{"name":"operator","type":"address","internalType":"address"},{"name":"approved","type":"bool","internalType":"bool"}],"outputs":[],"stateMutability":"nonpayable"},{"type":"function","name":"setRevocable","inputs":[],"outputs":[],"stateMutability":"nonpayable"},{"type":"function","name":"setTransferable","inputs":[],"outputs":[],"stateMutability":"nonpayable"},{"type":"function","name":"supportsInterface","inputs":[{"name":"interfaceId","type":"bytes4","internalType":"bytes4"}],"outputs":[{"name":"","type":"bool","internalType":"bool"}],"stateMutability":"view"},{"type":"function","name":"symbol","inputs":[],"outputs":[{"name":"","type":"string","internalType":"string"}],"stateMutability":"view"},{"type":"function","name":"tokenURI","inputs":[{"name":"_tokenId","type":"uint256","internalType":"uint256"}],"outputs":[{"name":"","type":"string","internalType":"string"}],"stateMutability":"view"},{"type":"function","name":"tokenURIs","inputs":[{"name":"","type":"uint256","internalType":"uint256"}],"outputs":[{"name":"","type":"string","internalType":"string"}],"stateMutability":"view"},{"type":"function","name":"totalSupply","inputs":[],"outputs":[{"name":"result","type":"uint256","internalType":"uint256"}],"stateMutability":"view"},{"type":"function","name":"transferFrom","inputs":[{"name":"from","type":"address","internalType":"address"},{"name":"to","type":"address","internalType":"address"},{"name":"tokenId","type":"uint256","internalType":"uint256"}],"outputs":[],"stateMutability":"payable"},{"type":"function","name":"transferOwnership","inputs":[{"name":"newOwner","type":"address","internalType":"address"}],"outputs":[],"stateMutability":"nonpayable"},{"type":"event","name":"Approval","inputs":[{"name":"owner","type":"address","indexed":true,"internalType":"address"},{"name":"approved","type":"address","indexed":true,"internalType":"address"},{"name":"tokenId","type":"uint256","indexed":true,"internalType":"uint256"}],"anonymous":false},{"type":"event","name":"ApprovalForAll","inputs":[{"name":"owner","type":"address","indexed":true,"internalType":"address"},{"name":"operator","type":"address","indexed":true,"internalType":"address"},{"name":"approved","type":"bool","indexed":false,"internalType":"bool"}],"anonymous":false},{"type":"event","name":"CertificateMinted","inputs":[{"name":"to","type":"address","indexed":true,"internalType":"address"},{"name":"tokenId","type":"uint256","indexed":false,"internalType":"uint256"}],"anonymous":false},{"type":"event","name":"CertificateRevoked","inputs":[{"name":"tokenId","type":"uint256","indexed":false,"internalType":"uint256"}],"anonymous":false},{"type":"event","name":"ConsecutiveTransfer","inputs":[{"name":"fromTokenId","type":"uint256","indexed":true,"internalType":"uint256"},{"name":"toTokenId","type":"uint256","indexed":false,"internalType":"uint256"},{"name":"from","type":"address","indexed":true,"internalType":"address"},{"name":"to","type":"address","indexed":true,"internalType":"address"}],"anonymous":false},{"type":"event","name":"IssuerAdded","inputs":[{"name":"issuer","type":"address","indexed":false,"internalType":"address"}],"anonymous":false},{"type":"event","name":"IssuerRemoved","inputs":[{"name":"issuer","type":"address","indexed":false,"internalType":"address"}],"anonymous":false},{"type":"event","name":"OwnershipTransferred","inputs":[{"name":"previousOwner","type":"address","indexed":true,"internalType":"address"},{"name":"newOwner","type":"address","indexed":true,"internalType":"address"}],"anonymous":false},{"type":"event","name":"RevocabilityChanged","inputs":[{"name":"isRevocable","type":"bool","indexed":false,"internalType":"bool"}],"anonymous":false},{"type":"event","name":"Transfer","inputs":[{"name":"from","type":"address","indexed":true,"internalType":"address"},{"name":"to","type":"address","indexed":true,"internalType":"address"},{"name":"tokenId","type":"uint256","indexed":true,"internalType":"uint256"}],"anonymous":false},{"type":"event","name":"TransferabilityChanged","inputs":[{"name":"isTransferable","type":"bool","indexed":false,"internalType":"bool"}],"anonymous":false},{"type":"error","name":"AlreadyHasRole","inputs":[{"name":"","type":"address","internalType":"address"},{"name":"","type":"bytes32","internalType":"bytes32"}]},{"type":"error","name":"ApprovalCallerNotOwnerNorApproved","inputs":[]},{"type":"error","name":"ApprovalQueryForNonexistentToken","inputs":[]},{"type":"error","name":"BalanceQueryForZeroAddress","inputs":[]},{"type":"error","name":"DoesNotHaveRole","inputs":[{"name":"","type":"address","internalType":"address"},{"name":"","type":"bytes32","internalType":"bytes32"}]},{"type":"error","name":"IncorrectCaller","inputs":[]},{"type":"error","name":"MintERC2309QuantityExceedsLimit","inputs":[]},{"type":"error","name":"MintToZeroAddress","inputs":[]},{"type":"error","name":"MintZeroQuantity","inputs":[]},{"type":"error","name":"NotCompatibleWithSpotMints","inputs":[]},{"type":"error","name":"OutOfCertificates","inputs":[]},{"type":"error","name":"OwnableInvalidOwner","inputs":[{"name":"owner","type":"address","internalType":"address"}]},{"type":"error","name":"OwnableUnauthorizedAccount","inputs":[{"name":"account","type":"address","internalType":"address"}]},{"type":"error","name":"OwnerQueryForNonexistentToken","inputs":[]},{"type":"error","name":"OwnershipNotInitializedForExtraData","inputs":[]},{"type":"error","name":"ReentrancyGuardReentrantCall","inputs":[]},{"type":"error","name":"RevocationNotAllowed","inputs":[]},{"type":"error","name":"SequentialMintExceedsLimit","inputs":[]},{"type":"error","name":"SequentialUpToTooSmall","inputs":[]},{"type":"error","name":"SpotMintTokenIdTooSmall","inputs":[]},{"type":"error","name":"TokenAlreadyExists","inputs":[]},{"type":"error","name":"TokenNotExpired","inputs":[]},{"type":"error","name":"TokenNotTransferable","inputs":[]},{"type":"error","name":"TransferCallerNotOwnerNorApproved","inputs":[]},{"type":"error","name":"TransferFromIncorrectOwner","inputs":[]},{"type":"error","name":"TransferToNonERC721ReceiverImplementer","inputs":[]},{"type":"error","name":"TransferToZeroAddress","inputs":[]},{"type":"error","name":"URIQueryForNonexistentToken","inputs":[]}],"bytecode":{"object":"0x60806040523480156200001157600080fd5b50604051620021eb380380620021eb8339810160408190526200003491620002d2565b8187876002620000458382620004a9565b506003620000548282620004a9565b50600160005550506001600160a01b0381166200008b57604051631e4fbdf760e01b81526000600482015260240160405180910390fd5b6200009681620000fb565b506001600a55600b859055600c80546001600160a01b0319166001600160a01b038416179055600e805461ffff191685151561ff00191617610100851515021790558051620000ed90600d9060208401906200014d565b505050505050505062000575565b600980546001600160a01b038381166001600160a01b0319831681179093556040519116919082907f8be0079c531659141344cd1fd0a4f28419497f9722a3daafe3b4186f6b6457e090600090a35050565b828054828255906000526020600020908101928215620001a5579160200282015b82811115620001a557825182546001600160a01b0319166001600160a01b039091161782556020909201916001909101906200016e565b50620001b3929150620001b7565b5090565b5b80821115620001b35760008155600101620001b8565b634e487b7160e01b600052604160045260246000fd5b604051601f8201601f191681016001600160401b03811182821017156200020f576200020f620001ce565b604052919050565b600082601f8301126200022957600080fd5b81516001600160401b03811115620002455762000245620001ce565b60206200025b601f8301601f19168201620001e4565b82815285828487010111156200027057600080fd5b60005b838110156200029057858101830151828201840152820162000273565b506000928101909101919091529392505050565b80518015158114620002b557600080fd5b919050565b80516001600160a01b0381168114620002b557600080fd5b600080600080600080600060e0888a031215620002ee57600080fd5b87516001600160401b03808211156200030657600080fd5b620003148b838c0162000217565b985060209150818a0151818111156200032c57600080fd5b6200033a8c828d0162000217565b98505060408a015196506200035260608b01620002a4565b95506200036260808b01620002a4565b94506200037260a08b01620002ba565b935060c08a0151818111156200038757600080fd5b8a01601f81018c136200039957600080fd5b805182811115620003ae57620003ae620001ce565b8060051b9250620003c1848401620001e4565b818152928201840192848101908e851115620003dc57600080fd5b928501925b848410156200040557620003f584620002ba565b82529285019290850190620003e1565b80965050505050505092959891949750929550565b600181811c908216806200042f57607f821691505b6020821081036200045057634e487b7160e01b600052602260045260246000fd5b50919050565b601f821115620004a457600081815260208120601f850160051c810160208610156200047f5750805b601f850160051c820191505b81811015620004a0578281556001016200048b565b5050505b505050565b81516001600160401b03811115620004c557620004c5620001ce565b620004dd81620004d684546200041a565b8462000456565b602080601f831160018114620005155760008415620004fc5750858301515b600019600386901b1c1916600185901b178555620004a0565b600085815260208120601f198616915b82811015620005465788860151825594840194600190910190840162000525565b5085821015620005655787850151600019600388901b60f8161c191681555b5050505050600190811b01905550565b611c6680620005856000396000f3fe6080604052600436106101cd5760003560e01c80635ffd1bad116100f757806395d89b4111610095578063c87b56dd11610064578063c87b56dd146104f3578063d5abeb0114610513578063e985e9c514610529578063f2fde38b1461054957600080fd5b806395d89b411461048b578063a22cb465146104a0578063b88d4fde146104c0578063ba7aef43146104d357600080fd5b80636c8b703f116100d15780636c8b703f1461041857806370a0823114610438578063715018a6146104585780638da5cb5b1461046d57600080fd5b80635ffd1bad146103b957806361ec30c4146103d85780636352211e146103f857600080fd5b806318160ddd1161016f57806323b872dd1161013e57806323b872dd1461035e57806337d8b9951461037157806342842e0e1461038657806347bc70931461039957600080fd5b806318160ddd146102e657806320694db01461030457806320c5429b146103245780632121dc751461034457600080fd5b8063081812fc116101ab578063081812fc14610261578063095ea7b314610281578063112016d514610296578063122bfa06146102d157600080fd5b806301ffc9a7146101d257806302d05d3f1461020757806306fdde031461023f575b600080fd5b3480156101de57600080fd5b506101f26101ed3660046116a4565b610569565b60405190151581526020015b60405180910390f35b34801561021357600080fd5b50600c54610227906001600160a01b031681565b6040516001600160a01b0390911681526020016101fe565b34801561024b57600080fd5b5061025461057a565b6040516101fe919061170e565b34801561026d57600080fd5b5061022761027c366004611721565b61060c565b61029461028f366004611751565b610647565b005b3480156102a257600080fd5b506102c36102b1366004611721565b60106020526000908152604090205481565b6040519081526020016101fe565b3480156102dd57600080fd5b50610294610657565b3480156102f257600080fd5b506102c3600154600054036000190190565b34801561031057600080fd5b5061029461031f36600461177b565b6106c1565b34801561033057600080fd5b5061029461033f366004611721565b6107c8565b34801561035057600080fd5b50600e546101f29060ff1681565b61029461036c366004611796565b6108ec565b34801561037d57600080fd5b50610294610a68565b610294610394366004611796565b610ab8565b3480156103a557600080fd5b506102946103b436600461177b565b610ad8565b3480156103c557600080fd5b50600e546101f290610100900460ff1681565b3480156103e457600080fd5b506102276103f3366004611721565b610c4d565b34801561040457600080fd5b50610227610413366004611721565b610c77565b34801561042457600080fd5b50610254610433366004611721565b610c82565b34801561044457600080fd5b506102c361045336600461177b565b610d1c565b34801561046457600080fd5b50610294610d62565b34801561047957600080fd5b506009546001600160a01b0316610227565b34801561049757600080fd5b50610254610d76565b3480156104ac57600080fd5b506102946104bb3660046117d2565b610d85565b6102946104ce366004611824565b610df1565b3480156104df57600080fd5b506102946104ee366004611900565b610e32565b3480156104ff57600080fd5b5061025461050e366004611721565b610fbd565b34801561051f57600080fd5b506102c3600b5481565b34801561053557600080fd5b506101f2610544366004611989565b61105f565b34801561055557600080fd5b5061029461056436600461177b565b61108d565b6000610574826110cb565b92915050565b606060028054610589906119bc565b80601f01602080910402602001604051908101604052809291908181526020018280546105b5906119bc565b80156106025780601f106105d757610100808354040283529160200191610602565b820191906000526020600020905b8154815290600101906020018083116105e557829003601f168201915b5050505050905090565b600061061782611119565b61062b5761062b6333d1c03960e21b611167565b506000908152600660205260409020546001600160a01b031690565b61065382826001611171565b5050565b61065f611214565b600e805460ff610100808304821615810261ff001990931692909217928390556040517f64769a91eb989b32dda8dc2020e1414f46633a53e422f275920e4e0ad331b93d936106b79390049091161515815260200190565b60405180910390a1565b6106c9611214565b60005b600d5481101561074357816001600160a01b0316600d82815481106106f3576106f36119f6565b6000918252602090912001546001600160a01b031603610731578160405163b7fed62560e01b81526004016107289190611a0c565b60405180910390fd5b8061073b81611a45565b9150506106cc565b50600d80546001810182556000919091527fd7b6990105719101dabeb77144f2a3385c8033acd3af97e9423a695e81ad1eb50180546001600160a01b0319166001600160a01b0383169081179091556040519081527f05e7c881d716bee8cb7ed92293133ba156704252439e5c502c277448f04e20c29060200160405180910390a150565b6000805b600d5481101561082857336001600160a01b0316600d82815481106107f3576107f36119f6565b6000918252602090912001546001600160a01b0316036108165760019150610828565b8061082081611a45565b9150506107cc565b5080610847576040516317fe949f60e01b815260040160405180910390fd5b61084f611241565b600e54610100900460ff16610877576040516391894d5b60e01b815260040160405180910390fd5b6000828152601160205260409020544210156108a657604051634213a7c160e01b815260040160405180910390fd5b6108af8261126b565b6040518281527fefa6c5f47ac2523bb4db18032377bf7fdce0fa9d86eddcae1ca9bba38be615d79060200160405180910390a16106536001600a55565b60006108f782611276565b6001600160a01b03948516949091508116841461091d5761091d62a1148160e81b611167565b600082815260066020526040902080546109498187335b6001600160a01b039081169116811491141790565b61096b57610957863361105f565b61096b5761096b632ce44b5f60e11b611167565b6109788686866001611317565b801561098357600082555b6001600160a01b038681166000908152600560205260408082208054600019019055918716808252919020805460010190554260a01b17600160e11b17600085815260046020526040812091909155600160e11b84169003610a1557600184016000818152600460205260408120549003610a13576000548114610a135760008181526004602052604090208490555b505b6001600160a01b0385168481887fddf252ad1be2c89b69c2b068fc378daa952ba7f163c4a11628f55a4df523b3ef600080a480600003610a5f57610a5f633a954ecd60e21b611167565b50505050505050565b610a70611214565b600e805460ff8082161560ff1990921682179092556040519116151581527f11da1b8c0a94a11df636c4bcd3500335a4f11ec00f56b0a425b3354171b2cd9a906020016106b7565b610ad383838360405180602001604052806000815250610df1565b505050565b610ae0611214565b6000805b600d54811015610bec57826001600160a01b0316600d8281548110610b0b57610b0b6119f6565b6000918252602090912001546001600160a01b031603610bda57600d805460019350610b38908490611a5e565b81548110610b4857610b486119f6565b600091825260209091200154600d80546001600160a01b039092169183908110610b7457610b746119f6565b9060005260206000200160006101000a8154816001600160a01b0302191690836001600160a01b03160217905550600d805480610bb357610bb3611a71565b600082815260209020810160001990810180546001600160a01b0319169055019055610bec565b80610be481611a45565b915050610ae4565b5080610c0d578160405163204fc34b60e11b81526004016107289190611a0c565b6040516001600160a01b03831681527faf66545c919a3be306ee446d8f42a9558b5b022620df880517bc9593ec0f2d529060200160405180910390a15050565b600d8181548110610c5d57600080fd5b6000918252602090912001546001600160a01b0316905081565b600061057482611276565b600f6020526000908152604090208054610c9b906119bc565b80601f0160208091040260200160405190810160405280929190818152602001828054610cc7906119bc565b8015610d145780601f10610ce957610100808354040283529160200191610d14565b820191906000526020600020905b815481529060010190602001808311610cf757829003601f168201915b505050505081565b60006001600160a01b038216610d3c57610d3c6323d3ad8160e21b611167565b506001600160a01b031660009081526005602052604090205467ffffffffffffffff1690565b610d6a611214565b610d74600061133f565b565b606060038054610589906119bc565b3360008181526007602090815260408083206001600160a01b03871680855290835292819020805460ff191686151590811790915590519081529192917f17307eab39ab6107e8899845ad3d59bd9653f200f220920489ca2b5937696c31910160405180910390a35050565b610dfc8484846108ec565b6001600160a01b0383163b15610e2c57610e1884848484611391565b610e2c57610e2c6368d2bf6b60e11b611167565b50505050565b6000805b600d54811015610e9257336001600160a01b0316600d8281548110610e5d57610e5d6119f6565b6000918252602090912001546001600160a01b031603610e805760019150610e92565b80610e8a81611a45565b915050610e36565b5080610eb1576040516317fe949f60e01b815260040160405180910390fd5b610eb9611241565b600b54610ecd600154600054036000190190565b10610eeb5760405163f0cd688760e01b815260040160405180910390fd5b6000610efe600154600054036000190190565b610f09906001611a87565b6000818152600f60205260409020909150610f25858783611ae8565b506000818152601060205260409020429055610f448362015180611ba8565b610f4e9042611a87565b600082815260116020526040902055610f68866001611473565b856001600160a01b03167fe351802b022b8ba03353eafd05148198c0dc13061427df4dbbbbfc5c726a1b9e82604051610fa391815260200190565b60405180910390a250610fb66001600a55565b5050505050565b6000818152600f60205260409020805460609190610fda906119bc565b80601f0160208091040260200160405190810160405280929190818152602001828054611006906119bc565b80156110535780601f1061102857610100808354040283529160200191611053565b820191906000526020600020905b81548152906001019060200180831161103657829003601f168201915b50505050509050919050565b6001600160a01b03918216600090815260076020908152604080832093909416825291909152205460ff1690565b611095611214565b6001600160a01b0381166110bf57604051631e4fbdf760e01b815260006004820152602401610728565b6110c88161133f565b50565b60006301ffc9a760e01b6001600160e01b0319831614806110fc57506380ac58cd60e01b6001600160e01b03198316145b806105745750506001600160e01b031916635b5e139f60e01b1490565b600081600111611162576000548210156111625760005b50600082815260046020526040812054908190036111585761115183611bbf565b9250611130565b600160e01b161590505b919050565b8060005260046000fd5b600061117c83610c77565b90508180156111945750336001600160a01b03821614155b156111b7576111a3813361105f565b6111b7576111b76367d9dca160e11b611167565b60008381526006602052604080822080546001600160a01b0319166001600160a01b0388811691821790925591518693918516917f8c5be1e5ebec7d5bd14f71427d1e84f3dd0314c0f7b2291e5b200ac8c7c3b92591a450505050565b6009546001600160a01b03163314610d745760405163118cdaa760e01b8152336004820152602401610728565b6002600a540361126457604051633ee5aeb560e01b815260040160405180910390fd5b6002600a55565b6110c881600061153f565b6000816001116113075750600081815260046020526040902054806000036112f45760005482106112b1576112b1636f96cda160e11b611167565b5b506000190160008181526004602052604090205480156112b257600160e01b81166000036112df57919050565b6112ef636f96cda160e11b611167565b6112b2565b600160e01b811660000361130757919050565b611162636f96cda160e11b611167565b600e5460ff1661133a5760405163647d843160e11b815260040160405180910390fd5b610e2c565b600980546001600160a01b038381166001600160a01b0319831681179093556040519116919082907f8be0079c531659141344cd1fd0a4f28419497f9722a3daafe3b4186f6b6457e090600090a35050565b604051630a85bd0160e11b81526000906001600160a01b0385169063150b7a02906113c6903390899088908890600401611bd6565b6020604051808303816000875af1925050508015611401575060408051601f3d908101601f191682019092526113fe91810190611c13565b60015b611456573d80801561142f576040519150601f19603f3d011682016040523d82523d6000602084013e611434565b606091505b50805160000361144e5761144e6368d2bf6b60e11b611167565b805181602001fd5b6001600160e01b031916630a85bd0160e11b149050949350505050565b600080549082900361148f5761148f63b562e8dd60e01b611167565b61149c6000848385611317565b60008181526004602090815260408083206001600160a01b0387164260a01b6001881460e11b178117909155808452600590925282208054680100000000000000018602019055908190036114fa576114fa622e076360e81b611167565b818301825b808360007fddf252ad1be2c89b69c2b068fc378daa952ba7f163c4a11628f55a4df523b3ef600080a48181600101915081036114ff575060005550505050565b600061154a83611276565b90508060008061156886600090815260066020526040902080549091565b91509150841561159f5761157d818433610934565b61159f5761158b833361105f565b61159f5761159f632ce44b5f60e11b611167565b6115ad836000886001611317565b80156115b857600082555b6001600160a01b038316600081815260056020526040902080546fffffffffffffffffffffffffffffffff0190554260a01b17600360e01b17600087815260046020526040812091909155600160e11b85169003611646576001860160008181526004602052604081205490036116445760005481146116445760008181526004602052604090208590555b505b60405186906000906001600160a01b038616907fddf252ad1be2c89b69c2b068fc378daa952ba7f163c4a11628f55a4df523b3ef908390a45050600180548101905550505050565b6001600160e01b0319811681146110c857600080fd5b6000602082840312156116b657600080fd5b81356116c18161168e565b9392505050565b6000815180845260005b818110156116ee576020818501810151868301820152016116d2565b506000602082860101526020601f19601f83011685010191505092915050565b6020815260006116c160208301846116c8565b60006020828403121561173357600080fd5b5035919050565b80356001600160a01b038116811461116257600080fd5b6000806040838503121561176457600080fd5b61176d8361173a565b946020939093013593505050565b60006020828403121561178d57600080fd5b6116c18261173a565b6000806000606084860312156117ab57600080fd5b6117b48461173a565b92506117c26020850161173a565b9150604084013590509250925092565b600080604083850312156117e557600080fd5b6117ee8361173a565b91506020830135801515811461180357600080fd5b809150509250929050565b634e487b7160e01b600052604160045260246000fd5b6000806000806080858703121561183a57600080fd5b6118438561173a565b93506118516020860161173a565b925060408501359150606085013567ffffffffffffffff8082111561187557600080fd5b818701915087601f83011261188957600080fd5b81358181111561189b5761189b61180e565b604051601f8201601f19908116603f011681019083821181831017156118c3576118c361180e565b816040528281528a60208487010111156118dc57600080fd5b82602086016020830137600060208483010152809550505050505092959194509250565b6000806000806060858703121561191657600080fd5b61191f8561173a565b9350602085013567ffffffffffffffff8082111561193c57600080fd5b818701915087601f83011261195057600080fd5b81358181111561195f57600080fd5b88602082850101111561197157600080fd5b95986020929092019750949560400135945092505050565b6000806040838503121561199c57600080fd5b6119a58361173a565b91506119b36020840161173a565b90509250929050565b600181811c908216806119d057607f821691505b6020821081036119f057634e487b7160e01b600052602260045260246000fd5b50919050565b634e487b7160e01b600052603260045260246000fd5b6001600160a01b039190911681526524b9b9bab2b960d11b602082015260400190565b634e487b7160e01b600052601160045260246000fd5b600060018201611a5757611a57611a2f565b5060010190565b8181038181111561057457610574611a2f565b634e487b7160e01b600052603160045260246000fd5b8082018082111561057457610574611a2f565b601f821115610ad357600081815260208120601f850160051c81016020861015611ac15750805b601f850160051c820191505b81811015611ae057828155600101611acd565b505050505050565b67ffffffffffffffff831115611b0057611b0061180e565b611b1483611b0e83546119bc565b83611a9a565b6000601f841160018114611b485760008515611b305750838201355b600019600387901b1c1916600186901b178355610fb6565b600083815260209020601f19861690835b82811015611b795786850135825560209485019460019092019101611b59565b5086821015611b965760001960f88860031b161c19848701351681555b505060018560011b0183555050505050565b808202811582820484141761057457610574611a2f565b600081611bce57611bce611a2f565b506000190190565b6001600160a01b0385811682528416602082015260408101839052608060608201819052600090611c09908301846116c8565b9695505050505050565b600060208284031215611c2557600080fd5b81516116c18161168e56fea2646970667358221220b3fddbf8839e29aa829b8a81e15ef9fbeb4ee14b0e3da672665f44743259fe9c64736f6c63430008140033","linkReferences":{}},"methodIdentifiers":{"addIssuer(address)":"20694db0","approve(address,uint256)":"095ea7b3","balanceOf(address)":"70a08231","creationTs(uint256)":"112016d5","creator()":"02d05d3f","getApproved(uint256)":"081812fc","isApprovedForAll(address,address)":"e985e9c5","isRevocable()":"5ffd1bad","isTransferable()":"2121dc75","issuers(uint256)":"61ec30c4","maxSupply()":"d5abeb01","mint(address,string,uint256)":"ba7aef43","name()":"06fdde03","owner()":"8da5cb5b","ownerOf(uint256)":"6352211e","removeIssuer(address)":"47bc7093","renounceOwnership()":"715018a6","revoke(uint256)":"20c5429b","safeTransferFrom(address,address,uint256)":"42842e0e","safeTransferFrom(address,address,uint256,bytes)":"b88d4fde","setApprovalForAll(address,bool)":"a22cb465","setRevocable()":"122bfa06","setTransferable()":"37d8b995","supportsInterface(bytes4)":"01ffc9a7","symbol()":"95d89b41","tokenURI(uint256)":"c87b56dd","tokenURIs(uint256)":"6c8b703f","totalSupply()":"18160ddd","transferFrom(address,address,uint256)":"23b872dd","transferOwnership(address)":"f2fde38b"},"id":41}